{
  "contractName": "LoanVaultCore",
  "abi": [
    {
      "constant": false,
      "inputs": [
        {
          "name": "_liquidityPool",
          "type": "address"
        }
      ],
      "name": "setLiquidityPool",
      "outputs": [],
      "payable": false,
      "stateMutability": "nonpayable",
      "type": "function"
    },
    {
      "constant": true,
      "inputs": [],
      "name": "accessControl",
      "outputs": [
        {
          "name": "",
          "type": "address"
        }
      ],
      "payable": false,
      "stateMutability": "view",
      "type": "function"
    },
    {
      "constant": false,
      "inputs": [
        {
          "name": "_accessControl",
          "type": "address"
        }
      ],
      "name": "setAccessControl",
      "outputs": [],
      "payable": false,
      "stateMutability": "nonpayable",
      "type": "function"
    },
    {
      "constant": false,
      "inputs": [
        {
          "name": "borrower",
          "type": "address"
        },
        {
          "name": "token",
          "type": "address"
        },
        {
          "name": "amount",
          "type": "uint256"
        }
      ],
      "name": "sweepCollateral",
      "outputs": [],
      "payable": false,
      "stateMutability": "nonpayable",
      "type": "function"
    },
    {
      "constant": false,
      "inputs": [],
      "name": "unpause",
      "outputs": [],
      "payable": false,
      "stateMutability": "nonpayable",
      "type": "function"
    },
    {
      "constant": true,
      "inputs": [],
      "name": "paused",
      "outputs": [
        {
          "name": "",
          "type": "bool"
        }
      ],
      "payable": false,
      "stateMutability": "view",
      "type": "function"
    },
    {
      "constant": true,
      "inputs": [],
      "name": "liquidityPool",
      "outputs": [
        {
          "name": "",
          "type": "address"
        }
      ],
      "payable": false,
      "stateMutability": "view",
      "type": "function"
    },
    {
      "constant": false,
      "inputs": [],
      "name": "pause",
      "outputs": [],
      "payable": false,
      "stateMutability": "nonpayable",
      "type": "function"
    },
    {
      "constant": true,
      "inputs": [
        {
          "name": "user",
          "type": "address"
        },
        {
          "name": "token",
          "type": "address"
        }
      ],
      "name": "getUserCollateral",
      "outputs": [
        {
          "name": "",
          "type": "uint256"
        }
      ],
      "payable": false,
      "stateMutability": "view",
      "type": "function"
    },
    {
      "constant": false,
      "inputs": [
        {
          "name": "token",
          "type": "address"
        },
        {
          "name": "amount",
          "type": "uint256"
        }
      ],
      "name": "depositCollateral",
      "outputs": [],
      "payable": false,
      "stateMutability": "nonpayable",
      "type": "function"
    },
    {
      "constant": true,
      "inputs": [
        {
          "name": "",
          "type": "address"
        },
        {
          "name": "",
          "type": "address"
        }
      ],
      "name": "collateral",
      "outputs": [
        {
          "name": "",
          "type": "uint256"
        }
      ],
      "payable": false,
      "stateMutability": "view",
      "type": "function"
    },
    {
      "constant": false,
      "inputs": [
        {
          "name": "borrower",
          "type": "address"
        },
        {
          "name": "token",
          "type": "address"
        },
        {
          "name": "amount",
          "type": "uint256"
        }
      ],
      "name": "removeCollateral",
      "outputs": [],
      "payable": false,
      "stateMutability": "nonpayable",
      "type": "function"
    },
    {
      "inputs": [
        {
          "name": "_accessControl",
          "type": "address"
        },
        {
          "name": "_liquidityPool",
          "type": "address"
        }
      ],
      "payable": false,
      "stateMutability": "nonpayable",
      "type": "constructor"
    },
    {
      "anonymous": false,
      "inputs": [
        {
          "indexed": true,
          "name": "who",
          "type": "address"
        },
        {
          "indexed": true,
          "name": "token",
          "type": "address"
        },
        {
          "indexed": false,
          "name": "amount",
          "type": "uint256"
        }
      ],
      "name": "CollateralDeposited",
      "type": "event"
    },
    {
      "anonymous": false,
      "inputs": [
        {
          "indexed": true,
          "name": "who",
          "type": "address"
        },
        {
          "indexed": true,
          "name": "token",
          "type": "address"
        },
        {
          "indexed": false,
          "name": "amount",
          "type": "uint256"
        }
      ],
      "name": "CollateralRemoved",
      "type": "event"
    },
    {
      "anonymous": false,
      "inputs": [
        {
          "indexed": true,
          "name": "by",
          "type": "address"
        }
      ],
      "name": "Paused",
      "type": "event"
    },
    {
      "anonymous": false,
      "inputs": [
        {
          "indexed": true,
          "name": "by",
          "type": "address"
        }
      ],
      "name": "Unpaused",
      "type": "event"
    },
    {
      "anonymous": false,
      "inputs": [
        {
          "indexed": true,
          "name": "token",
          "type": "address"
        },
        {
          "indexed": true,
          "name": "to",
          "type": "address"
        },
        {
          "indexed": false,
          "name": "amount",
          "type": "uint256"
        }
      ],
      "name": "EmergencyWithdraw",
      "type": "event"
    }
  ],
  "bytecode": "0x608060405234801561001057600080fd5b50d3801561001d57600080fd5b50d2801561002a57600080fd5b5060405160408062001eb98339810180604052604081101561004b57600080fd5b8101908080519060200190929190805190602001909291905050506001600081905550600073ffffffffffffffffffffffffffffffffffffffff168273ffffffffffffffffffffffffffffffffffffffff16141515156100f7576040517f08c379a000000000000000000000000000000000000000000000000000000000815260040180806020018281038252602181526020018062001e986021913960400191505060405180910390fd5b600073ffffffffffffffffffffffffffffffffffffffff168173ffffffffffffffffffffffffffffffffffffffff1614151515610180576040517f08c379a000000000000000000000000000000000000000000000000000000000815260040180806020018281038252602181526020018062001e776021913960400191505060405180910390fd5b81600160006101000a81548173ffffffffffffffffffffffffffffffffffffffff021916908373ffffffffffffffffffffffffffffffffffffffff16021790555080600260006101000a81548173ffffffffffffffffffffffffffffffffffffffff021916908373ffffffffffffffffffffffffffffffffffffffff1602179055506000600260146101000a81548160ff0219169083151502179055505050611c48806200022f6000396000f3fe608060405234801561001057600080fd5b50d3801561001d57600080fd5b50d2801561002a57600080fd5b50600436106100eb576000357c010000000000000000000000000000000000000000000000000000000090048063665a11ca116100a8578063665a11ca1461025c5780638456cb59146102a6578063a55e8668146102b0578063a5d5db0c14610328578063cc218ece14610376578063cce19f81146103ee576100eb565b806301877020146100f057806313007d551461013457806319129e5a1461017e578063297fde2c146101c25780633f4ba83a146102305780635c975abb1461023a575b600080fd5b6101326004803603602081101561010657600080fd5b81019080803573ffffffffffffffffffffffffffffffffffffffff16906020019092919050505061045c565b005b61013c61064c565b604051808273ffffffffffffffffffffffffffffffffffffffff1673ffffffffffffffffffffffffffffffffffffffff16815260200191505060405180910390f35b6101c06004803603602081101561019457600080fd5b81019080803573ffffffffffffffffffffffffffffffffffffffff169060200190929190505050610672565b005b61022e600480360360608110156101d857600080fd5b81019080803573ffffffffffffffffffffffffffffffffffffffff169060200190929190803573ffffffffffffffffffffffffffffffffffffffff16906020019092919080359060200190929190505050610862565b005b610238610c97565b005b610242610df8565b604051808215151515815260200191505060405180910390f35b610264610e0b565b604051808273ffffffffffffffffffffffffffffffffffffffff1673ffffffffffffffffffffffffffffffffffffffff16815260200191505060405180910390f35b6102ae610e31565b005b610312600480360360408110156102c657600080fd5b81019080803573ffffffffffffffffffffffffffffffffffffffff169060200190929190803573ffffffffffffffffffffffffffffffffffffffff169060200190929190505050610f93565b6040518082815260200191505060405180910390f35b6103746004803603604081101561033e57600080fd5b81019080803573ffffffffffffffffffffffffffffffffffffffff1690602001909291908035906020019092919050505061101a565b005b6103d86004803603604081101561038c57600080fd5b81019080803573ffffffffffffffffffffffffffffffffffffffff169060200190929190803573ffffffffffffffffffffffffffffffffffffffff1690602001909291905050506112e1565b6040518082815260200191505060405180910390f35b61045a6004803603606081101561040457600080fd5b81019080803573ffffffffffffffffffffffffffffffffffffffff169060200190929190803573ffffffffffffffffffffffffffffffffffffffff16906020019092919080359060200190929190505050611306565b005b60016000541415156104d6576040517f08c379a000000000000000000000000000000000000000000000000000000000815260040180806020018281038252600e8152602001807f5265656e7472616e742063616c6c00000000000000000000000000000000000081525060200191505060405180910390fd5b6002600081905550600073ffffffffffffffffffffffffffffffffffffffff168173ffffffffffffffffffffffffffffffffffffffff1614151515610583576040517f08c379a000000000000000000000000000000000000000000000000000000000815260040180806020018281038252601b8152602001807f4c6f616e5661756c74436f72653a207a65726f2061646472657373000000000081525060200191505060405180910390fd5b61058c3361173b565b1515610600576040517f08c379a000000000000000000000000000000000000000000000000000000000815260040180806020018281038252601d8152602001807f4c6f616e5661756c74436f72653a206e6f7420617574686f72697a656400000081525060200191505060405180910390fd5b80600260006101000a81548173ffffffffffffffffffffffffffffffffffffffff021916908373ffffffffffffffffffffffffffffffffffffffff160217905550600160008190555050565b600160009054906101000a900473ffffffffffffffffffffffffffffffffffffffff1681565b60016000541415156106ec576040517f08c379a000000000000000000000000000000000000000000000000000000000815260040180806020018281038252600e8152602001807f5265656e7472616e742063616c6c00000000000000000000000000000000000081525060200191505060405180910390fd5b6002600081905550600073ffffffffffffffffffffffffffffffffffffffff168173ffffffffffffffffffffffffffffffffffffffff1614151515610799576040517f08c379a000000000000000000000000000000000000000000000000000000000815260040180806020018281038252601b8152602001807f4c6f616e5661756c74436f72653a207a65726f2061646472657373000000000081525060200191505060405180910390fd5b6107a23361173b565b1515610816576040517f08c379a000000000000000000000000000000000000000000000000000000000815260040180806020018281038252601d8152602001807f4c6f616e5661756c74436f72653a206e6f7420617574686f72697a656400000081525060200191505060405180910390fd5b80600160006101000a81548173ffffffffffffffffffffffffffffffffffffffff021916908373ffffffffffffffffffffffffffffffffffffffff160217905550600160008190555050565b600073ffffffffffffffffffffffffffffffffffffffff168273ffffffffffffffffffffffffffffffffffffffff1614151515610907576040517f08c379a00000000000000000000000000000000000000000000000000000000081526004018080602001828103825260198152602001807f4c6f616e5661756c74436f72653a207a65726f20746f6b656e0000000000000081525060200191505060405180910390fd5b600073ffffffffffffffffffffffffffffffffffffffff168373ffffffffffffffffffffffffffffffffffffffff16141515156109ac576040517f08c379a000000000000000000000000000000000000000000000000000000000815260040180806020018281038252601c8152602001807f4c6f616e5661756c74436f72653a207a65726f20626f72726f7765720000000081525060200191505060405180910390fd5b600081111515610a24576040517f08c379a000000000000000000000000000000000000000000000000000000000815260040180806020018281038252601a8152602001807f4c6f616e5661756c74436f72653a207a65726f20616d6f756e7400000000000081525060200191505060405180910390fd5b610a2d3361173b565b1515610aa1576040517f08c379a000000000000000000000000000000000000000000000000000000000815260040180806020018281038252601d8152602001807f4c6f616e5661756c74436f72653a206e6f7420617574686f72697a656400000081525060200191505060405180910390fd5b80600360008573ffffffffffffffffffffffffffffffffffffffff1673ffffffffffffffffffffffffffffffffffffffff16815260200190815260200160002060008473ffffffffffffffffffffffffffffffffffffffff1673ffffffffffffffffffffffffffffffffffffffff1681526020019081526020016000205410151515610b78576040517f08c379a0000000000000000000000000000000000000000000000000000000008152600401808060200182810382526026815260200180611bf76026913960400191505060405180910390fd5b80600360008573ffffffffffffffffffffffffffffffffffffffff1673ffffffffffffffffffffffffffffffffffffffff16815260200190815260200160002060008473ffffffffffffffffffffffffffffffffffffffff1673ffffffffffffffffffffffffffffffffffffffff16815260200190815260200160002060008282540392505081905550610c2d33828473ffffffffffffffffffffffffffffffffffffffff166118e39092919063ffffffff16565b8173ffffffffffffffffffffffffffffffffffffffff168373ffffffffffffffffffffffffffffffffffffffff167fce4d55ad6d5734bd8b947e19d64c51774bdc08ab4b2e59ee3a764476bea650de836040518082815260200191505060405180910390a3505050565b610ca03361173b565b1515610d14576040517f08c379a000000000000000000000000000000000000000000000000000000000815260040180806020018281038252601d8152602001807f4c6f616e5661756c74436f72653a206e6f7420617574686f72697a656400000081525060200191505060405180910390fd5b600260149054906101000a900460ff161515610d98576040517f08c379a00000000000000000000000000000000000000000000000000000000081526004018080602001828103825260198152602001807f4c6f616e5661756c74436f72653a206e6f74207061757365640000000000000081525060200191505060405180910390fd5b6000600260146101000a81548160ff0219169083151502179055503373ffffffffffffffffffffffffffffffffffffffff167f5db9ee0a495bf2e6ff9c91a7834c1ba4fdd244a5e8aa4e537bd38aeae4b073aa60405160405180910390a2565b600260149054906101000a900460ff1681565b600260009054906101000a900473ffffffffffffffffffffffffffffffffffffffff1681565b610e3a3361173b565b1515610eae576040517f08c379a000000000000000000000000000000000000000000000000000000000815260040180806020018281038252601d8152602001807f4c6f616e5661756c74436f72653a206e6f7420617574686f72697a656400000081525060200191505060405180910390fd5b600260149054906101000a900460ff16151515610f33576040517f08c379a000000000000000000000000000000000000000000000000000000000815260040180806020018281038252601d8152602001807f4c6f616e5661756c74436f72653a20616c72656164792070617573656400000081525060200191505060405180910390fd5b6001600260146101000a81548160ff0219169083151502179055503373ffffffffffffffffffffffffffffffffffffffff167f62e78cea01bee320cd4e420270b5ea74000d11b0c9f74754ebdbfc544b05a25860405160405180910390a2565b6000600360008473ffffffffffffffffffffffffffffffffffffffff1673ffffffffffffffffffffffffffffffffffffffff16815260200190815260200160002060008373ffffffffffffffffffffffffffffffffffffffff1673ffffffffffffffffffffffffffffffffffffffff16815260200190815260200160002054905092915050565b6001600054141515611094576040517f08c379a000000000000000000000000000000000000000000000000000000000815260040180806020018281038252600e8152602001807f5265656e7472616e742063616c6c00000000000000000000000000000000000081525060200191505060405180910390fd5b6002600081905550600073ffffffffffffffffffffffffffffffffffffffff168273ffffffffffffffffffffffffffffffffffffffff1614151515611141576040517f08c379a00000000000000000000000000000000000000000000000000000000081526004018080602001828103825260198152602001807f4c6f616e5661756c74436f72653a207a65726f20746f6b656e0000000000000081525060200191505060405180910390fd5b6000811115156111b9576040517f08c379a000000000000000000000000000000000000000000000000000000000815260040180806020018281038252601a8152602001807f4c6f616e5661756c74436f72653a207a65726f20616d6f756e7400000000000081525060200191505060405180910390fd5b6111e63330838573ffffffffffffffffffffffffffffffffffffffff16611a40909392919063ffffffff16565b80600360003373ffffffffffffffffffffffffffffffffffffffff1673ffffffffffffffffffffffffffffffffffffffff16815260200190815260200160002060008473ffffffffffffffffffffffffffffffffffffffff1673ffffffffffffffffffffffffffffffffffffffff168152602001908152602001600020600082825401925050819055508173ffffffffffffffffffffffffffffffffffffffff163373ffffffffffffffffffffffffffffffffffffffff167ff1c0dd7e9b98bbff859029005ef89b127af049cd18df1a8d79f0b7e019911e56836040518082815260200191505060405180910390a360016000819055505050565b6003602052816000526040600020602052806000526040600020600091509150505481565b600073ffffffffffffffffffffffffffffffffffffffff168273ffffffffffffffffffffffffffffffffffffffff16141515156113ab576040517f08c379a00000000000000000000000000000000000000000000000000000000081526004018080602001828103825260198152602001807f4c6f616e5661756c74436f72653a207a65726f20746f6b656e0000000000000081525060200191505060405180910390fd5b600073ffffffffffffffffffffffffffffffffffffffff168373ffffffffffffffffffffffffffffffffffffffff1614151515611450576040517f08c379a000000000000000000000000000000000000000000000000000000000815260040180806020018281038252601c8152602001807f4c6f616e5661756c74436f72653a207a65726f20626f72726f7765720000000081525060200191505060405180910390fd5b6000811115156114c8576040517f08c379a000000000000000000000000000000000000000000000000000000000815260040180806020018281038252601a8152602001807f4c6f616e5661756c74436f72653a207a65726f20616d6f756e7400000000000081525060200191505060405180910390fd5b6114d13361173b565b1515611545576040517f08c379a000000000000000000000000000000000000000000000000000000000815260040180806020018281038252601d8152602001807f4c6f616e5661756c74436f72653a206e6f7420617574686f72697a656400000081525060200191505060405180910390fd5b80600360008573ffffffffffffffffffffffffffffffffffffffff1673ffffffffffffffffffffffffffffffffffffffff16815260200190815260200160002060008473ffffffffffffffffffffffffffffffffffffffff1673ffffffffffffffffffffffffffffffffffffffff168152602001908152602001600020541015151561161c576040517f08c379a0000000000000000000000000000000000000000000000000000000008152600401808060200182810382526026815260200180611bf76026913960400191505060405180910390fd5b80600360008573ffffffffffffffffffffffffffffffffffffffff1673ffffffffffffffffffffffffffffffffffffffff16815260200190815260200160002060008473ffffffffffffffffffffffffffffffffffffffff1673ffffffffffffffffffffffffffffffffffffffff168152602001908152602001600020600082825403925050819055506116d133828473ffffffffffffffffffffffffffffffffffffffff166118e39092919063ffffffff16565b8173ffffffffffffffffffffffffffffffffffffffff168373ffffffffffffffffffffffffffffffffffffffff167fce4d55ad6d5734bd8b947e19d64c51774bdc08ab4b2e59ee3a764476bea650de836040518082815260200191505060405180910390a3505050565b60008073ffffffffffffffffffffffffffffffffffffffff16600160009054906101000a900473ffffffffffffffffffffffffffffffffffffffff1673ffffffffffffffffffffffffffffffffffffffff16141515156117e6576040517f08c379a0000000000000000000000000000000000000000000000000000000008152600401808060200182810382526024815260200180611bd36024913960400191505060405180910390fd5b600160009054906101000a900473ffffffffffffffffffffffffffffffffffffffff1673ffffffffffffffffffffffffffffffffffffffff166324d7806c836040518263ffffffff167c0100000000000000000000000000000000000000000000000000000000028152600401808273ffffffffffffffffffffffffffffffffffffffff1673ffffffffffffffffffffffffffffffffffffffff16815260200191505060206040518083038186803b1580156118a157600080fd5b505afa1580156118b5573d6000803e3d6000fd5b505050506040513d60208110156118cb57600080fd5b81019080805190602001909291905050509050919050565b60008373ffffffffffffffffffffffffffffffffffffffff1663a9059cbb84846040518363ffffffff167c0100000000000000000000000000000000000000000000000000000000028152600401808373ffffffffffffffffffffffffffffffffffffffff1673ffffffffffffffffffffffffffffffffffffffff16815260200182815260200192505050602060405180830381600087803b15801561198857600080fd5b505af115801561199c573d6000803e3d6000fd5b505050506040513d60208110156119b257600080fd5b81019080805190602001909291905050509050801515611a3a576040517f08c379a000000000000000000000000000000000000000000000000000000000815260040180806020018281038252601a8152602001807f5361666554524332303a207472616e73666572206661696c656400000000000081525060200191505060405180910390fd5b50505050565b60008473ffffffffffffffffffffffffffffffffffffffff166323b872dd8585856040518463ffffffff167c0100000000000000000000000000000000000000000000000000000000028152600401808473ffffffffffffffffffffffffffffffffffffffff1673ffffffffffffffffffffffffffffffffffffffff1681526020018373ffffffffffffffffffffffffffffffffffffffff1673ffffffffffffffffffffffffffffffffffffffff1681526020018281526020019350505050602060405180830381600087803b158015611b1957600080fd5b505af1158015611b2d573d6000803e3d6000fd5b505050506040513d6020811015611b4357600080fd5b81019080805190602001909291905050509050801515611bcb576040517f08c379a000000000000000000000000000000000000000000000000000000000815260040180806020018281038252601e8152602001807f5361666554524332303a207472616e7366657246726f6d206661696c6564000081525060200191505060405180910390fd5b505050505056fe4c6f616e5661756c74436f72653a20616363657373436f6e74726f6c206e6f74207365744c6f616e5661756c74436f72653a20696e73756666696369656e7420636f6c6c61746572616ca165627a7a72305820d8fdd3dcb8ad230fd52d5047315ed05736d99f1292cb21bd7d24323fdf9b155600294c6f616e5661756c74436f72653a207a65726f206c6971756964697479506f6f6c4c6f616e5661756c74436f72653a207a65726f20616363657373436f6e74726f6c",
  "source": "// SPDX-License-Identifier: MIT\npragma solidity ^0.5.4;\n\nimport \"../libs/ReentrancyGuard.sol\";\nimport \"../libs/SafeTRC20.sol\";\n\ninterface ILiquidityPool {\n    function pullFunds(address token, address to, uint256 amount) external;\n}\n\ninterface IAccessControl {\n    function isAdmin(address user) external view returns (bool);\n}\n\n\ncontract LoanVaultCore is ReentrancyGuard {\n    using SafeTRC20 for ITRC20;\n\n    address public accessControl;\n    address public liquidityPool;\n    bool public paused;\n\n    // borrower -> token collateral amount\n    mapping(address => mapping(address => uint256)) public collateral;\n\n    event CollateralDeposited(address indexed who, address indexed token, uint256 amount);\n    event CollateralRemoved(address indexed who, address indexed token, uint256 amount);\n    event Paused(address indexed by);\n    event Unpaused(address indexed by);\n    event EmergencyWithdraw(address indexed token, address indexed to, uint256 amount);\n\n    constructor(address _accessControl, address _liquidityPool) public \n    { \n        require(_accessControl != address(0), \"LoanVaultCore: zero accessControl\");\n        require(_liquidityPool != address(0), \"LoanVaultCore: zero liquidityPool\");\n\n        accessControl=_accessControl; \n        liquidityPool=_liquidityPool; \n         paused = false;\n    }\n\n    // --- modifiers ---\n    modifier whenNotPaused() {\n        require(!paused, \"LoanVaultCore: paused\");\n        _;\n    }\n\n    modifier onlyAuthorized() {\n        require(_isAuthorized(msg.sender), \"LoanVaultCore: not authorized\");\n        _;\n    }\n\n    // --- pause control ---\n    function pause() external onlyAuthorized {\n        require(!paused, \"LoanVaultCore: already paused\");\n        paused = true;\n        emit Paused(msg.sender);\n    }\n\n    function unpause() external onlyAuthorized {\n        require(paused, \"LoanVaultCore: not paused\");\n        paused = false;\n        emit Unpaused(msg.sender);\n    }\n\n    function depositCollateral(address token, uint256 amount) external nonReentrant {\n\n        require(token != address(0), \"LoanVaultCore: zero token\");\n        require(amount > 0, \"LoanVaultCore: zero amount\");\n\n        ITRC20(token).safeTransferFrom(msg.sender, address(this), amount);\n        collateral[msg.sender][token] += amount;\n        emit CollateralDeposited(msg.sender, token, amount);\n    }\n\n    function removeCollateral(address borrower, address token, uint256 amount) external {\n        // Only LoanManager (authorized via AccessControl) can remove collateral on liquidation or refund.\n       \n       require(token != address(0), \"LoanVaultCore: zero token\");\n        require(borrower != address(0), \"LoanVaultCore: zero borrower\");\n        require(amount > 0, \"LoanVaultCore: zero amount\");\n\n        // Authorization check\n        require(_isAuthorized(msg.sender), \"LoanVaultCore: not authorized\");\n\n        // Sufficient collateral check\n        require(collateral[borrower][token] >= amount, \"LoanVaultCore: insufficient collateral\");\n\n        // Update state first (prevent reentrancy)\n        collateral[borrower][token] -= amount;\n\n\n        ITRC20(token).safeTransfer(msg.sender, amount);\n        emit CollateralRemoved(borrower, token, amount);\n    }\n\n    // helper to sweep collateral to repay loan\n    function sweepCollateral(address borrower, address token, uint256 amount) external {\n        require(token != address(0), \"LoanVaultCore: zero token\");\n        require(borrower != address(0), \"LoanVaultCore: zero borrower\");\n        require(amount > 0, \"LoanVaultCore: zero amount\");\n\n        // Authorization check\n        require(_isAuthorized(msg.sender), \"LoanVaultCore: not authorized\");\n\n        // Sufficient collateral check\n        require(collateral[borrower][token] >= amount, \"LoanVaultCore: insufficient collateral\");\n\n        // Update state before external call\n        collateral[borrower][token] -= amount;\n\n        ITRC20(token).safeTransfer(msg.sender, amount);\n        emit CollateralRemoved(borrower, token, amount);\n    }\n\n    /// @dev Internal authorization helper\n    function _isAuthorized(address user) internal view returns (bool) {\n        require(accessControl != address(0), \"LoanVaultCore: accessControl not set\");\n        return IAccessControl(accessControl).isAdmin(user);\n    }\n\n    /// @notice Change access control contract (only admin)\n    function setAccessControl(address _accessControl) external nonReentrant {\n        require(_accessControl != address(0), \"LoanVaultCore: zero address\");\n        require(_isAuthorized(msg.sender), \"LoanVaultCore: not authorized\");\n        accessControl = _accessControl;\n    }\n\n    /// @notice Change liquidity pool address (only admin)\n    function setLiquidityPool(address _liquidityPool) external nonReentrant {\n        require(_liquidityPool != address(0), \"LoanVaultCore: zero address\");\n        require(_isAuthorized(msg.sender), \"LoanVaultCore: not authorized\");\n        liquidityPool = _liquidityPool;\n    }\n\n    // Fetch collateral single token for a given user\n    function getUserCollateral(address user, address token) \n        external \n        view \n        returns (uint256) \n    {\n        return collateral[user][token];\n    }\n}",
  "sourcePath": "/Users/taiwo/workspace/tronbfpay/contracts/v3/LoanVaultCore.sol",
  "compiler": {
    "name": "solc",
    "version": "0.5.4+commit.d15a3125.mod.Emscripten.clang"
  },
  "schemaVersion": "2.0.1",
  "updatedAt": "2025-09-20T17:11:33.423Z"
}