{"abi":[{"type":"constructor","inputs":[{"name":"_vaultAdmin","type":"address","internalType":"address"},{"name":"_token","type":"address","internalType":"address"},{"name":"_tokenDecimal","type":"uint256","internalType":"uint256"},{"name":"_nativeDecimal","type":"uint256","internalType":"uint256"}],"stateMutability":"nonpayable"},{"type":"function","name":"activeOverdraftCount","inputs":[],"outputs":[{"name":"","type":"uint256","internalType":"uint256"}],"stateMutability":"view"},{"type":"function","name":"amountsPaid","inputs":[{"name":"","type":"bytes32","internalType":"bytes32"}],"outputs":[{"name":"tranRef","type":"bytes32","internalType":"bytes32"},{"name":"borrower","type":"address","internalType":"address"},{"name":"amount","type":"uint256","internalType":"uint256"},{"name":"fiatAmount","type":"uint256","internalType":"uint256"},{"name":"rate","type":"uint256","internalType":"uint256"},{"name":"creditRef","type":"bytes32","internalType":"bytes32"},{"name":"exists","type":"bool","internalType":"bool"},{"name":"approved","type":"bool","internalType":"bool"}],"stateMutability":"view"},{"type":"function","name":"approveRepayment","inputs":[{"name":"paymentRef","type":"bytes32","internalType":"bytes32"},{"name":"creditRef","type":"bytes32","internalType":"bytes32"}],"outputs":[],"stateMutability":"nonpayable"},{"type":"function","name":"balances","inputs":[{"name":"","type":"address","internalType":"address"}],"outputs":[{"name":"","type":"uint256","internalType":"uint256"}],"stateMutability":"view"},{"type":"function","name":"borrowerWhitelisted","inputs":[{"name":"","type":"address","internalType":"address"}],"outputs":[{"name":"","type":"bool","internalType":"bool"}],"stateMutability":"view"},{"type":"function","name":"computeHealthFactor","inputs":[{"name":"tokenAmount","type":"uint256","internalType":"uint256"},{"name":"utilizedAmount","type":"uint256","internalType":"uint256"}],"outputs":[{"name":"","type":"uint256","internalType":"uint256"}],"stateMutability":"view"},{"type":"function","name":"contractOwner","inputs":[],"outputs":[{"name":"","type":"address","internalType":"address"}],"stateMutability":"view"},{"type":"function","name":"creditLimitAdjustments","inputs":[{"name":"","type":"bytes32","internalType":"bytes32"}],"outputs":[{"name":"creditRef","type":"bytes32","internalType":"bytes32"},{"name":"tranRef","type":"bytes32","internalType":"bytes32"},{"name":"topup","type":"bool","internalType":"bool"},{"name":"amount","type":"uint256","internalType":"uint256"},{"name":"fiatAmount","type":"uint256","internalType":"uint256"},{"name":"rate","type":"uint256","internalType":"uint256"},{"name":"exists","type":"bool","internalType":"bool"},{"name":"approved","type":"bool","internalType":"bool"}],"stateMutability":"view"},{"type":"function","name":"creditOfficers","inputs":[{"name":"","type":"address","internalType":"address"}],"outputs":[{"name":"","type":"bool","internalType":"bool"}],"stateMutability":"view"},{"type":"function","name":"dailyOverdraftFee","inputs":[{"name":"","type":"bytes32","internalType":"bytes32"},{"name":"","type":"uint256","internalType":"uint256"}],"outputs":[{"name":"","type":"bool","internalType":"bool"}],"stateMutability":"view"},{"type":"function","name":"dailyUsedByBorrower","inputs":[{"name":"","type":"address","internalType":"address"},{"name":"","type":"uint256","internalType":"uint256"}],"outputs":[{"name":"","type":"uint256","internalType":"uint256"}],"stateMutability":"view"},{"type":"function","name":"debitTransactions","inputs":[{"name":"","type":"bytes32","internalType":"bytes32"}],"outputs":[{"name":"creditRef","type":"bytes32","internalType":"bytes32"},{"name":"fiatAmount","type":"uint256","internalType":"uint256"},{"name":"amount","type":"uint256","internalType":"uint256"},{"name":"rate","type":"uint256","internalType":"uint256"},{"name":"payer","type":"address","internalType":"address"},{"name":"markedPaid","type":"bool","internalType":"bool"},{"name":"approved","type":"bool","internalType":"bool"},{"name":"approveReleaseTimestamp","type":"uint256","internalType":"uint256"},{"name":"exists","type":"bool","internalType":"bool"}],"stateMutability":"view"},{"type":"function","name":"depositCollateral","inputs":[{"name":"amount","type":"uint256","internalType":"uint256"}],"outputs":[],"stateMutability":"nonpayable"},{"type":"function","name":"fetchDebitTransaction","inputs":[{"name":"paymentRef","type":"bytes32","internalType":"bytes32"}],"outputs":[{"name":"creditRef","type":"bytes32","internalType":"bytes32"},{"name":"fiatAmount","type":"uint256","internalType":"uint256"},{"name":"amount","type":"uint256","internalType":"uint256"},{"name":"rate","type":"uint256","internalType":"uint256"},{"name":"payer","type":"address","internalType":"address"},{"name":"markedPaid","type":"bool","internalType":"bool"},{"name":"approved","type":"bool","internalType":"bool"},{"name":"approveReleaseTimestamp","type":"uint256","internalType":"uint256"},{"name":"exists","type":"bool","internalType":"bool"}],"stateMutability":"view"},{"type":"function","name":"fetchOverdraft","inputs":[{"name":"ref","type":"bytes32","internalType":"bytes32"}],"outputs":[{"name":"refOut","type":"bytes32","internalType":"bytes32"},{"name":"creditLimit","type":"uint256","internalType":"uint256"},{"name":"availableLimit","type":"uint256","internalType":"uint256"},{"name":"utilizedLimit","type":"uint256","internalType":"uint256"},{"name":"fee","type":"uint256","internalType":"uint256"},{"name":"expiry","type":"uint256","internalType":"uint256"},{"name":"borrower","type":"address","internalType":"address"},{"name":"lender","type":"address","internalType":"address"},{"name":"tokenAmount","type":"uint256","internalType":"uint256"},{"name":"_tokenToFiatRate","type":"uint256","internalType":"uint256"},{"name":"healthFactor","type":"uint256","internalType":"uint256"},{"name":"tokenBalance","type":"uint256","internalType":"uint256"}],"stateMutability":"view"},{"type":"function","name":"fetchRepaymentTransaction","inputs":[{"name":"tranRef","type":"bytes32","internalType":"bytes32"}],"outputs":[{"name":"tranRefOut","type":"bytes32","internalType":"bytes32"},{"name":"borrower","type":"address","internalType":"address"},{"name":"amount","type":"uint256","internalType":"uint256"},{"name":"fiatAmount","type":"uint256","internalType":"uint256"},{"name":"rate","type":"uint256","internalType":"uint256"},{"name":"creditRef","type":"bytes32","internalType":"bytes32"},{"name":"exists","type":"bool","internalType":"bool"},{"name":"approved","type":"bool","internalType":"bool"}],"stateMutability":"view"},{"type":"function","name":"fetchVaultSettings","inputs":[],"outputs":[{"name":"noOfOverdrafts","type":"uint256","internalType":"uint256"},{"name":"_maximumOverdraftLimit","type":"uint256","internalType":"uint256"},{"name":"_globalFeeBps","type":"uint256","internalType":"uint256"},{"name":"_maximumDebitAmount","type":"uint256","internalType":"uint256"},{"name":"_maximumDailyLimit","type":"uint256","internalType":"uint256"},{"name":"_tokenToFiatRate","type":"uint256","internalType":"uint256"},{"name":"_totalFeeCollected","type":"uint256","internalType":"uint256"},{"name":"_tokenDecimal","type":"uint256","internalType":"uint256"}],"stateMutability":"view"},{"type":"function","name":"getTotalUtilizedLimit","inputs":[{"name":"borrower","type":"address","internalType":"address"}],"outputs":[{"name":"totalUtilized","type":"uint256","internalType":"uint256"},{"name":"totalTokenAmount","type":"uint256","internalType":"uint256"}],"stateMutability":"view"},{"type":"function","name":"getUtilizedAmountInToken","inputs":[{"name":"utilizedAmount","type":"uint256","internalType":"uint256"}],"outputs":[{"name":"","type":"uint256","internalType":"uint256"}],"stateMutability":"view"},{"type":"function","name":"globalFeeBps","inputs":[],"outputs":[{"name":"","type":"uint256","internalType":"uint256"}],"stateMutability":"view"},{"type":"function","name":"managers","inputs":[{"name":"","type":"address","internalType":"address"}],"outputs":[{"name":"","type":"bool","internalType":"bool"}],"stateMutability":"view"},{"type":"function","name":"maximumDailyLimit","inputs":[],"outputs":[{"name":"","type":"uint256","internalType":"uint256"}],"stateMutability":"view"},{"type":"function","name":"maximumDebitAmount","inputs":[],"outputs":[{"name":"","type":"uint256","internalType":"uint256"}],"stateMutability":"view"},{"type":"function","name":"maximumOverdraftLimit","inputs":[],"outputs":[{"name":"","type":"uint256","internalType":"uint256"}],"stateMutability":"view"},{"type":"function","name":"modifyOverdraftLine","inputs":[{"name":"ref","type":"bytes32","internalType":"bytes32"},{"name":"tranRef","type":"bytes32","internalType":"bytes32"},{"name":"topup","type":"bool","internalType":"bool"},{"name":"fiatAmount","type":"uint256","internalType":"uint256"},{"name":"feeBps","type":"uint256","internalType":"uint256"},{"name":"expiry","type":"uint256","internalType":"uint256"},{"name":"tokenAmount","type":"uint256","internalType":"uint256"},{"name":"_tokenToFiatRate","type":"uint256","internalType":"uint256"}],"outputs":[],"stateMutability":"nonpayable"},{"type":"function","name":"nativeDecimal","inputs":[],"outputs":[{"name":"","type":"uint256","internalType":"uint256"}],"stateMutability":"view"},{"type":"function","name":"overdraftLineHealthFactor","inputs":[{"name":"creditRef","type":"bytes32","internalType":"bytes32"}],"outputs":[{"name":"","type":"uint256","internalType":"uint256"}],"stateMutability":"view"},{"type":"function","name":"overdrafts","inputs":[{"name":"","type":"bytes32","internalType":"bytes32"}],"outputs":[{"name":"ref","type":"bytes32","internalType":"bytes32"},{"name":"creditLimit","type":"uint256","internalType":"uint256"},{"name":"availableLimit","type":"uint256","internalType":"uint256"},{"name":"utilizedLimit","type":"uint256","internalType":"uint256"},{"name":"fee","type":"uint256","internalType":"uint256"},{"name":"expiry","type":"uint256","internalType":"uint256"},{"name":"borrower","type":"address","internalType":"address"},{"name":"lender","type":"address","internalType":"address"},{"name":"tokenAmount","type":"uint256","internalType":"uint256"},{"name":"tokenToFiatRate","type":"uint256","internalType":"uint256"},{"name":"exists","type":"bool","internalType":"bool"}],"stateMutability":"view"},{"type":"function","name":"owner","inputs":[],"outputs":[{"name":"","type":"address","internalType":"address"}],"stateMutability":"view"},{"type":"function","name":"pause","inputs":[],"outputs":[],"stateMutability":"nonpayable"},{"type":"function","name":"paused","inputs":[],"outputs":[{"name":"","type":"bool","internalType":"bool"}],"stateMutability":"view"},{"type":"function","name":"platformFeeAddress","inputs":[],"outputs":[{"name":"","type":"address","internalType":"address"}],"stateMutability":"view"},{"type":"function","name":"postDailyFee","inputs":[{"name":"creditRef","type":"bytes32","internalType":"bytes32"}],"outputs":[],"stateMutability":"nonpayable"},{"type":"function","name":"postDebitTransaction","inputs":[{"name":"paymentRef","type":"bytes32","internalType":"bytes32"},{"name":"fiatAmount","type":"uint256","internalType":"uint256"},{"name":"creditRef","type":"bytes32","internalType":"bytes32"},{"name":"amount","type":"uint256","internalType":"uint256"},{"name":"rate","type":"uint256","internalType":"uint256"}],"outputs":[],"stateMutability":"nonpayable"},{"type":"function","name":"postOverdraftLine","inputs":[{"name":"ref","type":"bytes32","internalType":"bytes32"},{"name":"creditLimit","type":"uint256","internalType":"uint256"},{"name":"feeBps","type":"uint256","internalType":"uint256"},{"name":"expiry","type":"uint256","internalType":"uint256"},{"name":"borrower","type":"address","internalType":"address"},{"name":"lender","type":"address","internalType":"address"},{"name":"tokenAmount","type":"uint256","internalType":"uint256"},{"name":"_tokenToFiatRate","type":"uint256","internalType":"uint256"}],"outputs":[],"stateMutability":"nonpayable"},{"type":"function","name":"postRepayment","inputs":[{"name":"paymentRef","type":"bytes32","internalType":"bytes32"},{"name":"borrower","type":"address","internalType":"address"},{"name":"fiatAmount","type":"uint256","internalType":"uint256"},{"name":"amount","type":"uint256","internalType":"uint256"},{"name":"rate","type":"uint256","internalType":"uint256"},{"name":"creditRef","type":"bytes32","internalType":"bytes32"}],"outputs":[],"stateMutability":"nonpayable"},{"type":"function","name":"processBulkDailyFee","inputs":[{"name":"borrower","type":"address","internalType":"address"}],"outputs":[],"stateMutability":"nonpayable"},{"type":"function","name":"rescueAllowedAfter","inputs":[],"outputs":[{"name":"","type":"uint256","internalType":"uint256"}],"stateMutability":"view"},{"type":"function","name":"setConfigValues","inputs":[{"name":"rate","type":"uint256","internalType":"uint256"}],"outputs":[],"stateMutability":"nonpayable"},{"type":"function","name":"setGlobalFeeBps","inputs":[{"name":"newFeeBps","type":"uint256","internalType":"uint256"}],"outputs":[],"stateMutability":"nonpayable"},{"type":"function","name":"setMaximumDailyLimit","inputs":[{"name":"newDailyLimit","type":"uint256","internalType":"uint256"}],"outputs":[],"stateMutability":"nonpayable"},{"type":"function","name":"setMaximumDebitAmount","inputs":[{"name":"newMaxDebit","type":"uint256","internalType":"uint256"}],"outputs":[],"stateMutability":"nonpayable"},{"type":"function","name":"setMaximumOverdraftLimit","inputs":[{"name":"newLimit","type":"uint256","internalType":"uint256"}],"outputs":[],"stateMutability":"nonpayable"},{"type":"function","name":"setTimelockAfterApproval","inputs":[{"name":"newTimelock","type":"uint256","internalType":"uint256"}],"outputs":[],"stateMutability":"nonpayable"},{"type":"function","name":"setVaultAdmin","inputs":[{"name":"_newAdmin","type":"address","internalType":"address"}],"outputs":[],"stateMutability":"nonpayable"},{"type":"function","name":"timelockAfterApproval","inputs":[],"outputs":[{"name":"","type":"uint256","internalType":"uint256"}],"stateMutability":"view"},{"type":"function","name":"toggleCreditOfficer","inputs":[{"name":"_o","type":"address","internalType":"address"},{"name":"_enable","type":"bool","internalType":"bool"}],"outputs":[],"stateMutability":"nonpayable"},{"type":"function","name":"toggleManager","inputs":[{"name":"_mgr","type":"address","internalType":"address"},{"name":"_enable","type":"bool","internalType":"bool"}],"outputs":[],"stateMutability":"nonpayable"},{"type":"function","name":"tokenDecimal","inputs":[],"outputs":[{"name":"","type":"uint256","internalType":"uint256"}],"stateMutability":"view"},{"type":"function","name":"tokenToFiatRate","inputs":[],"outputs":[{"name":"","type":"uint256","internalType":"uint256"}],"stateMutability":"view"},{"type":"function","name":"totalFeeCollected","inputs":[],"outputs":[{"name":"","type":"uint256","internalType":"uint256"}],"stateMutability":"view"},{"type":"function","name":"transferOwnership","inputs":[{"name":"newOwner","type":"address","internalType":"address"}],"outputs":[],"stateMutability":"nonpayable"},{"type":"function","name":"unpause","inputs":[],"outputs":[],"stateMutability":"nonpayable"},{"type":"function","name":"vaultAdmin","inputs":[],"outputs":[{"name":"","type":"address","internalType":"address"}],"stateMutability":"view"},{"type":"function","name":"whitelistBorrower","inputs":[{"name":"borrower","type":"address","internalType":"address"},{"name":"allowed","type":"bool","internalType":"bool"}],"outputs":[],"stateMutability":"nonpayable"},{"type":"function","name":"withdrawCollateral","inputs":[{"name":"amount","type":"uint256","internalType":"uint256"}],"outputs":[],"stateMutability":"nonpayable"},{"type":"function","name":"withdrawFee","inputs":[{"name":"amount","type":"uint256","internalType":"uint256"}],"outputs":[],"stateMutability":"nonpayable"},{"type":"event","name":"BorrowerWhitelisted","inputs":[{"name":"borrower","type":"address","indexed":false,"internalType":"address"},{"name":"whitelisted","type":"bool","indexed":false,"internalType":"bool"}],"anonymous":false},{"type":"event","name":"CollateralDeposited","inputs":[{"name":"user","type":"address","indexed":true,"internalType":"address"},{"name":"token","type":"address","indexed":true,"internalType":"address"},{"name":"amount","type":"uint256","indexed":false,"internalType":"uint256"}],"anonymous":false},{"type":"event","name":"CollateralWithdrawn","inputs":[{"name":"user","type":"address","indexed":true,"internalType":"address"},{"name":"token","type":"address","indexed":true,"internalType":"address"},{"name":"amount","type":"uint256","indexed":false,"internalType":"uint256"}],"anonymous":false},{"type":"event","name":"CreditLimitAdjusted","inputs":[{"name":"ref","type":"bytes32","indexed":true,"internalType":"bytes32"},{"name":"tranRef","type":"bytes32","indexed":true,"internalType":"bytes32"},{"name":"topup","type":"bool","indexed":false,"internalType":"bool"},{"name":"fiatAmount","type":"uint256","indexed":false,"internalType":"uint256"},{"name":"feeBps","type":"uint256","indexed":false,"internalType":"uint256"},{"name":"fiatRate","type":"uint256","indexed":false,"internalType":"uint256"}],"anonymous":false},{"type":"event","name":"CreditOfficerToggled","inputs":[{"name":"officer","type":"address","indexed":false,"internalType":"address"},{"name":"enabled","type":"bool","indexed":false,"internalType":"bool"}],"anonymous":false},{"type":"event","name":"DailyBulkFeePosted","inputs":[{"name":"totalFee","type":"uint256","indexed":false,"internalType":"uint256"},{"name":"amount","type":"uint256","indexed":false,"internalType":"uint256"}],"anonymous":false},{"type":"event","name":"DailyFeePosted","inputs":[{"name":"creditRef","type":"bytes32","indexed":true,"internalType":"bytes32"},{"name":"amount","type":"uint256","indexed":false,"internalType":"uint256"}],"anonymous":false},{"type":"event","name":"DebitTransactionPosted","inputs":[{"name":"paymentRef","type":"bytes32","indexed":true,"internalType":"bytes32"},{"name":"creditRef","type":"bytes32","indexed":true,"internalType":"bytes32"},{"name":"fiatAmount","type":"uint256","indexed":false,"internalType":"uint256"},{"name":"tokenAmount","type":"uint256","indexed":false,"internalType":"uint256"},{"name":"rate","type":"uint256","indexed":false,"internalType":"uint256"}],"anonymous":false},{"type":"event","name":"ManagerToggled","inputs":[{"name":"manager","type":"address","indexed":false,"internalType":"address"},{"name":"enabled","type":"bool","indexed":false,"internalType":"bool"}],"anonymous":false},{"type":"event","name":"OverdraftPosted","inputs":[{"name":"ref","type":"bytes32","indexed":true,"internalType":"bytes32"},{"name":"borrower","type":"address","indexed":false,"internalType":"address"},{"name":"creditLimit","type":"uint256","indexed":false,"internalType":"uint256"}],"anonymous":false},{"type":"event","name":"OwnershipTransferred","inputs":[{"name":"previousOwner","type":"address","indexed":true,"internalType":"address"},{"name":"newOwner","type":"address","indexed":true,"internalType":"address"}],"anonymous":false},{"type":"event","name":"PaymentApproved","inputs":[{"name":"paymentRef","type":"bytes32","indexed":true,"internalType":"bytes32"},{"name":"creditRef","type":"bytes32","indexed":true,"internalType":"bytes32"}],"anonymous":false},{"type":"event","name":"PaymentMarkedPaid","inputs":[{"name":"paymentRef","type":"bytes32","indexed":true,"internalType":"bytes32"},{"name":"creditRef","type":"bytes32","indexed":true,"internalType":"bytes32"},{"name":"amount","type":"uint256","indexed":false,"internalType":"uint256"},{"name":"fiatAmount","type":"uint256","indexed":false,"internalType":"uint256"},{"name":"rate","type":"uint256","indexed":false,"internalType":"uint256"},{"name":"by","type":"address","indexed":true,"internalType":"address"}],"anonymous":false},{"type":"event","name":"PlatformFeeWithdrawn","inputs":[{"name":"receiver","type":"address","indexed":false,"internalType":"address"},{"name":"amount","type":"uint256","indexed":false,"internalType":"uint256"}],"anonymous":false},{"type":"event","name":"VaultAdminChanged","inputs":[{"name":"oldAdmin","type":"address","indexed":true,"internalType":"address"},{"name":"newAdmin","type":"address","indexed":true,"internalType":"address"}],"anonymous":false}],"bytecode":{"object":"0x60803461012257601f61306438819003918201601f19168301916001600160401b0383118484101761012657808492608094604052833981010312610122576100478161013a565b906100546020820161013a565b60408201516060909201515f54600180556305f5e100600c5562015180600d556032600e5562989680600f556301312d006010556001600160a01b03191693909291903315610122576040519433337f8be0079c531659141344cd1fd0a4f28419497f9722a3daafe3b4186f6b6457e05f80a36001600160a01b03193381811690921782175f55601a805482166001600160a01b03948516179055600280548216949093169390931790915560129290925560119290925560168054909216179055612f15908161014f8239f35b5f80fd5b634e487b7160e01b5f52604160045260245ffd5b51906001600160a01b03821682036101225756fe6080806040526004361015610012575f80fd5b5f3560e01c908163089cc6af14612a55575080630988db4c146129e157806317cdeb3414612933578063198e1e60146126ea5780631c155ba3146126795780631f223ffd1461260a5780632074295e146125a25780632095ca391461258557806320a83c2514612568578063213051e5146124e557806327e235e3146124ad5780633f4ba83a1461247b5780634822638c146123f85780634f3c46241461235c5780635204f5381461233f578063580ead92146122d65780635a3e988c146122b95780635c975abb146122955780635caed029146122785780635d85209d1461223b5780635f393a171461221e5780636112fe2e14611f7f57806375e673a114611f6257806383806e5514611f415780638456cb5914611f0a57806385913ba314611e9f5780638b80cbf914611e825780638c44a7b914611e195780638da5cb5b14611df25780638e9fd7ad14611d8357806395075c6c14611d5f5780639c07143914611d245780639e0c548514611ce0578063a113b0fa14611bf8578063aebe0ecd14611bdb578063b1734eb714611a11578063b9b2b5cd146119f4578063bad4a01f146118b1578063bc00937814611818578063be357616146116bb578063bf8c44d9146110fe578063c69b76a814610d8a578063caeed85714610cd0578063ce606ee014610ca8578063d8e49ff314610c26578063dc9d243014610bcd578063ddea224e14610aeb578063e730dd3014610a9f578063e7f6f22514610a77578063eb0054c31461096a578063ed14834f14610942578063f0ab8f1a146106ee578063f2fde38b14610678578063f323e4b814610474578063f89c194514610457578063f936917a146102d05763fdff9b4d1461028f575f80fd5b346102cc5760203660031901126102cc576001600160a01b036102b0612a8e565b165f52601b602052602060ff60405f2054166040519015158152f35b5f80fd5b346102cc5760403660031901126102cc57600435602435906102f960ff5f5460a01c1615612b37565b61030e60018060a01b03601a54163314612c42565b805f52600960205260405f206006810190815460ff81161561042557846005830154036103ee5760081c60ff166103b657835f52600460205261038160038060405f209361036260ff600a87015416612bae565b01805461037460028601918254612c35565b9055549201918254612c28565b9055805461ff0019166101001790557f9fe66c55a0ca9b75ec12fb8c5a64573fcc752edfc0ae41a40db54aae7dc419655f80a3005b60405162461bcd60e51b815260206004820152601060248201526f185b1c9958591e48185c1c1c9bdd995960821b6044820152606490fd5b60405162461bcd60e51b815260206004820152600f60248201526e0c6e4cac8d2e840dad2e6dac2e8c6d608b1b6044820152606490fd5b60405162461bcd60e51b815260206004820152600a6024820152691b9bc81c185e5b595b9d60b21b6044820152606490fd5b346102cc575f3660031901126102cc576020600d54604051908152f35b346102cc5760c03660031901126102cc576024356001600160a01b03811690600435908290036102cc57604435906064359260843560a435936104be60ff5f5460a01c1615612b37565b335f52601b60205260ff60405f2054168015610664575b6104de90612e5f565b845f52600460205260405f206104fa60ff600a83015416612bae565b600601546001600160a01b03168303610630576106167f5e87d3de0def8bbfc83e31c2d67731ce6e31214b220bae9022f40b4d275090f893855f52600960205261054e60ff600660405f2001541615612e22565b856105ff600660405161056081612be9565b838152602081019485528a604082018d81526060830189815260808401918b835260a0850193845260c085019860018a5260e08601985f8a525f52600960205260405f209551865560018060a01b03905116600186019060018060a01b03166001600160601b0360a01b8254161790555160028501555160038401555160048301555160058201550192511515839060ff801983541691151516179055565b51815461ff00191690151560081b61ff0016179055565b6040805196875260208701919091528501523393606090a4005b60405162461bcd60e51b815260206004820152600c60248201526b3737ba103137b93937bbb2b960a11b6044820152606490fd5b50601a546001600160a01b031633146104d5565b346102cc5760203660031901126102cc57610691612a8e565b5f546001600160a01b038116916106a9338414612aff565b6001600160a01b03169182156102cc5782907f8be0079c531659141344cd1fd0a4f28419497f9722a3daafe3b4186f6b6457e05f80a36001600160a01b031916175f55005b346102cc5760203660031901126102cc5760043561071360ff5f5460a01c1615612b37565b61072260026001541415612c81565b6002600155335f52601b60205260ff60405f205416801561092e575b61074790612e5f565b805f52600460205260405f2061076360ff600a83015416612bae565b60018060a01b036006820154166003820191825480156108f65761271061079562015180420492600485015490612da5565b049180545f52601860205260405f20825f5260205260ff60405f2054166108b157835f5260036020528260405f20541061086c577f93e4ab0634b41b32496d8dc564abe9e9763c3e52bfcea2a326213611f080f9249460209460028301906108008683541015612dd6565b5f526003865260405f20610815868254612c28565b9055610822858254612c28565b905561082f848254612c35565b905561083d83601454612c35565b601455545f526018835260405f20905f52825260405f20600160ff19825416179055604051908152a260018055005b60405162461bcd60e51b815260206004820152601f60248201527f696e73756666696369656e7420636f6c6c61746572616c2062616c616e6365006044820152606490fd5b60405162461bcd60e51b815260206004820152601860248201527f6461696c792066656520616c726561647920706f7374656400000000000000006044820152606490fd5b60405162461bcd60e51b815260206004820152601060248201526f1b9bc81d5d1a5b1a5e995908199d5b9960821b6044820152606490fd5b50601a546001600160a01b0316331461073e565b346102cc575f3660031901126102cc576015546040516001600160a01b039091168152602090f35b346102cc5760203660031901126102cc576004355f52600460205260405f2060ff600a8201541615610a3c578060086101809201549060038101546109af8184612e9a565b90825493600184015493600281015492600482015460058301549060018060a01b0360068501541692600960018060a01b0360078701541695015496845f52600360205260405f2054996040519b8c5260208c015260408b015260608a0152608089015260a088015260c087015260e0860152610100850152610120840152610140830152610160820152f35b60405162461bcd60e51b815260206004820152601360248201527213d59154911490519517d393d517d193d55391606a1b6044820152606490fd5b346102cc575f3660031901126102cc57601a546040516001600160a01b039091168152602090f35b346102cc5760203660031901126102cc576004355f5260046020526020610ae360405f20610ad360ff600a83015416612bae565b6003600882015491015490612e9a565b604051908152f35b346102cc5760203660031901126102cc576004355f52600960205260405f20600681015460ff81168015610b885782546001840154600285015460038601546004870154600590970154604080519586526001600160a01b03949094166020860152928401919091526060830152608082019490945260a0810193909352151560c083015260081c60ff16151560e08201528061010081015b0390f35b60405162461bcd60e51b815260206004820152601f60248201527f52455041594d454e545f5452414e53414354494f4e5f4e4f545f464f554e44006044820152606490fd5b346102cc575f3660031901126102cc57610100600b54600c54600e54600f54601054601354916014549360125495604051978852602088015260408701526060860152608085015260a084015260c083015260e0820152f35b346102cc5760203660031901126102cc576004355f52600560205261010060405f2060ff81549160018101549082600282015416600382015460048301549160066005850154940154946040519788526020880152151560408701526060860152608085015260a0840152818116151560c084015260081c16151560e0820152f35b346102cc575f3660031901126102cc576016546040516001600160a01b039091168152602090f35b346102cc5760203660031901126102cc576004355f52600860205260405f2060ff6006820154168015610d4557610b84825491600184015492600285015493600386015495600560048201549101549260405197889760ff8460a81c169460ff8560a01c169460018060a01b0316938a612ab3565b60405162461bcd60e51b815260206004820152601b60248201527f44454249545f5452414e53414354494f4e5f4e4f545f464f554e4400000000006044820152606490fd5b346102cc5760a03660031901126102cc57600435602435906044359160643560843591610dbe60ff5f5460a01c1615612b37565b610dcd60026001541415612c81565b6002600155845f52600460205260405f2092610def60ff600a86015416612bae565b60068401546001600160a01b031633036110c957600f5482116110845762015180420490335f52601760205260405f20825f52602052610e338360405f2054612c35565b601054106110495760036002860195610e4f8588541015612dd6565b875f526008602052610e6b60ff600660405f2001541615612e22565b0191610ea785610ea0610e8e610e85875460125490612da5565b60135490612db8565b335f52600360205260405f2054612c28565b1015612d06565b6040519261012084019684881067ffffffffffffffff89111761103557610fd261102c957f51dfb5fda5c85afc3841599b8b258fea4dabe53d49b9ab53b3f4e2f92314f7a9996040528b815260068b602083018a8152604084018c815260608501908a8252608086019133835260a08701905f825260c08801925f845260e08901955f87526101008a0197600189525f52600860205260405f2099518a555160018a0155516002890155516003880155600487019260018060a01b039060018060a01b03905116166001600160601b0360a01b84541617835551151582549060ff60a01b9060a01b169060ff60a01b191617825551151581549060ff60a81b9060a81b169060ff60a81b191617905551600584015551151591019060ff801983541691151516179055565b610fdd868254612c28565b9055610fea858254612c35565b9055335f52601760205260405f20905f5260205260405f2061100d848254612c35565b9055604051938493846040919493926060820195825260208201520152565b0390a360018055005b634e487b7160e01b5f52604160045260245ffd5b60405162461bcd60e51b8152602060048201526013602482015272195e18d959591cc819185a5b1e481b1a5b5a5d606a1b6044820152606490fd5b60405162461bcd60e51b815260206004820152601860248201527f65786365656473206d617820646562697420616d6f756e7400000000000000006044820152606490fd5b60405162461bcd60e51b815260206004820152600d60248201526c37b7363c903137b93937bbb2b960991b6044820152606490fd5b346102cc576101003660031901126102cc576004356084356024356001600160a01b0382166044356064358285036102cc5760a4356001600160a01b03811691908290036102cc5760c4359160e43561115e60ff5f5460a01c1615612b37565b335f52601c60205260ff60405f20541680156116a5575b8015611691575b61118590612b6c565b885f52600460205260ff600a60405f2001541661165f57600c54871161161a57855f52600660205260ff60405f2054166115d557851561159057811561155257855f5260036020528360405f2054106114fc5784156114be57801561148a57831561144e5786156114125782156113d7576040519361016085019285841067ffffffffffffffff8511176110355761130f96600a958c9560405285885260208801918b8352604089018c815260608a01905f825260808b0192835260a08b0193845260c08b01948d865260e08c019687526101008c019788526101208c019889526101408c019960018b525f52600460205260405f209b518c555160018c01555160028b01555160038a015551600489015551600588015560018060a01b03905116600687019060018060a01b03166001600160601b0360a01b82541617905560018060a01b03905116600786019060018060a01b03166001600160601b0360a01b82541617905551600885015551600984015551151591019060ff801983541691151516179055565b805f52600660205260405f20600160ff198254161790555f52600760205260405f2080546801000000000000000081101561103557600181018083558110156113c35784915f5260205f200155600b5491600183018093116113af57600b92909255604080516001600160a01b03909316835260208301919091527f610c4ff9495a92527ce02188ab13f3a6476a85c6695e1e2c797c7c65d96f40c591a2005b634e487b7160e01b5f52601160045260245ffd5b634e487b7160e01b5f52603260045260245ffd5b60405162461bcd60e51b81526020600482015260136024820152724578706972792064617465206973207a65726f60681b6044820152606490fd5b60405162461bcd60e51b8152602060048201526014602482015273437265646974204c696d6974206973207a65726f60601b6044820152606490fd5b60405162461bcd60e51b8152602060048201526014602482015273546f6b656e20616d6f756e74206973207a65726f60601b6044820152606490fd5b60405162461bcd60e51b815260206004820152600c60248201526b72617465206973207a65726f60a01b6044820152606490fd5b60405162461bcd60e51b815260206004820152601660248201527511185a5b1e481c985d1948199959481b9bdd081cd95d60521b6044820152606490fd5b60405162461bcd60e51b815260206004820152602860248201527f696e73756666696369656e7420636f6c6c61746572616c20626f72726f7765726044820152670819195c1bdcda5d60c21b6064820152608490fd5b60405162461bcd60e51b8152602060048201526016602482015275496e76616c6964206c656e646572206164647265737360501b6044820152606490fd5b60405162461bcd60e51b815260206004820152601860248201527f496e76616c696420626f72726f776572206164647265737300000000000000006044820152606490fd5b60405162461bcd60e51b815260206004820152601e60248201527f426f72726f77657220686173206f766572647261667420616c726561647900006044820152606490fd5b60405162461bcd60e51b815260206004820152601f60248201527f65786365656473206d6178696d756d206f7665726472616674206c696d6974006044820152606490fd5b60405162461bcd60e51b815260206004820152600a6024820152697265662065786973747360b01b6044820152606490fd5b50601a546001600160a01b0316331461117c565b50335f52601b60205260ff60405f205416611175565b346102cc5760203660031901126102cc576004356116e060ff5f5460a01c1615612b37565b6116ef60026001541415612c81565b60026001556014549081156117e85761170b8161174d93612c28565b60145560025460155460405163a9059cbb60e01b81526001600160a01b03918216600482015260248101849052936020928592169082905f9082906044820190565b03925af19182156117dd577fd116803f8b8538a601b6096e8d1196e3ce3ef43dec6dbbe4cd4e5c69dd171d8b9261178b915f916117ae575b50612d61565b601554604080516001600160a01b0390921682526020820192909252a160018055005b6117d0915060203d6020116117d6575b6117c88183612c06565b810190612d49565b84611785565b503d6117be565b6040513d5f823e3d90fd5b60405162461bcd60e51b8152602060048201526008602482015267020466565203e20360c41b6044820152606490fd5b346102cc5760203660031901126102cc57600480355f90815260096020908152604091829020805460018201546002830154600384015496840154600585015460069095015487519485526001600160a01b0390931695840195909552948201949094526060810194909452608084019190915260a083015260ff808216151560c084015260089190911c16151560e082015261010090f35b346102cc5760203660031901126102cc576004356118d660ff5f5460a01c1615612b37565b6118e560026001541415612c81565b60026001556118f5811515612cb9565b6002546040516323b872dd60e01b81523360048201523060248201526044810183905290602090829060649082905f906001600160a01b03165af19081156117dd575f916119d5575b501561199e57335f52600360205260405f2061195b828254612c35565b90556002546040519182526001600160a01b03169033907ff1c0dd7e9b98bbff859029005ef89b127af049cd18df1a8d79f0b7e019911e5690602090a360018055005b60405162461bcd60e51b815260206004820152600f60248201526e1d1c985b9cd9995c8819985a5b1959608a1b6044820152606490fd5b6119ee915060203d6020116117d6576117c88183612c06565b8261193e565b346102cc575f3660031901126102cc576020601454604051908152f35b346102cc5760203660031901126102cc576001600160a01b03611a32612a8e565b16805f52600760205260405f20604051808260208294549384815201905f5260205f20925f5b818110611bc2575050611a6d92500382612c06565b6201518042045f925f5b8351811015611b8d57611a8a8185612cf2565b515f52600460205260405f2060ff600a8201541680611b6b575b611ab2575b50600101611a77565b60038101805480151580611b5e575b611acd575b5050611aa9565b908297612710611ae8611b3594600460019897015490612da5565b0491865f52600360205260405f20611b01848254612c28565b905560028a01611b12848254612c28565b9055611b1f838254612c35565b9055611b2d82601454612c35565b601455612c35565b95545f52601860205260405f20845f5260205260405f208260ff19825416179055908680611ac6565b5060048301541515611ac1565b5080545f52601860205260405f20845f5260205260ff60405f20541615611aa4565b7f64f9107da25908ab4035012fd9bebe2c1ddd02a8f18c68a85b80f4dd6941db4a6040866014549082519182526020820152a1005b8454835260019485019486945060209093019201611a58565b346102cc575f3660031901126102cc576020600c54604051908152f35b346102cc5760203660031901126102cc57611c11612a8e565b6001600160a01b03165f90815260076020908152604080832090518154808252918452828420909284928491820190845b818110611cc7575050611c5792500383612c06565b5f5b8251811015611cb757611c6c8184612cf2565b515f52600460205260405f2060ff600a82015416611c8e575b50600101611c59565b91600191946008611ca7611cb093600387015490612c35565b94015490612c35565b9390611c85565b6040828582519182526020820152f35b8454835260019485019487945060209093019201611c42565b346102cc5760403660031901126102cc576001600160a01b03611d01612a8e565b165f52601760205260405f206024355f52602052602060405f2054604051908152f35b346102cc5760403660031901126102cc576004355f52601860205260405f206024355f52602052602060ff60405f2054166040519015158152f35b346102cc5760203660031901126102cc576020610ae3610e85601254600435612da5565b346102cc5760203660031901126102cc57600435611dac60018060a01b03601a54163314612c42565b8015611db757601055005b60405162461bcd60e51b81526020600482015260136024820152721253959053125117d11052531657d312535255606a1b6044820152606490fd5b346102cc575f3660031901126102cc575f546040516001600160a01b039091168152602090f35b346102cc5760203660031901126102cc57600435611e4260018060a01b03601a54163314612c42565b8015611e4d57600c55005b60405162461bcd60e51b815260206004820152600d60248201526c1253959053125117d312535255609a1b6044820152606490fd5b346102cc575f3660031901126102cc576020600e54604051908152f35b346102cc5760203660031901126102cc57600435611ec860018060a01b03601a54163314612c42565b6103e88111611ed657600e55005b60405162461bcd60e51b815260206004820152600c60248201526b08c8a8abea89e9ebe90928e960a31b6044820152606490fd5b346102cc575f3660031901126102cc575f54611f30336001600160a01b03831614612aff565b60ff60a01b1916600160a01b175f55005b346102cc5760403660031901126102cc576020610ae3602435600435612e9a565b346102cc575f3660031901126102cc576020600b54604051908152f35b346102cc5760203660031901126102cc57600435611fa460ff5f5460a01c1615612b37565b611fb360026001541415612c81565b6002600155611fc3811515612cb9565b335f5260036020528060405f2054106121d95760135480156121a857601254801561216b57335f52600760205260405f20604051808160208454928381520180945f5260205f20925f5b81811061215257505061202292500382612c06565b51156113c357515f52600460205260405f20908360ff600a8401541661210b575b50505050335f52600360205260405f2061205e828254612c28565b905560025460405163a9059cbb60e01b81523360048201526024810183905290602090829060449082905f906001600160a01b03165af180156117dd576120ab915f916120ec5750612d61565b6002546040519182526001600160a01b03169033907f45892a46e6cef329bb642da6d69846d324db43d19008edc141ed82382eda1bee90602090a360018055005b612105915060203d6020116117d6576117c88183612c06565b83611785565b610ea0610e8e60029561212561212a956003880154612da5565b612db8565b60018101612139848254612c28565b905501612147828254612c28565b905581808083612043565b845483526001948501948694506020909301920161200d565b60405162461bcd60e51b81526020600482015260156024820152741d1bdad95b88191958da5b585b081b9bdd081cd95d605a1b6044820152606490fd5b60405162461bcd60e51b81526020600482015260096024820152687a65726f207261746560b81b6044820152606490fd5b60405162461bcd60e51b815260206004820152601760248201527f696e73756666696369656e7420636f6c6c61746572616c0000000000000000006044820152606490fd5b346102cc575f3660031901126102cc576020601054604051908152f35b346102cc5760203660031901126102cc576001600160a01b0361225c612a8e565b165f52601c602052602060ff60405f2054166040519015158152f35b346102cc575f3660031901126102cc576020601254604051908152f35b346102cc575f3660031901126102cc57602060ff5f5460a01c166040519015158152f35b346102cc575f3660031901126102cc576020600f54604051908152f35b346102cc5760203660031901126102cc576004356122ff60018060a01b03601a54163314612c42565b801561230a57600f55005b60405162461bcd60e51b815260206004820152600d60248201526c1253959053125117d111509255609a1b6044820152606490fd5b346102cc575f3660031901126102cc576020601954604051908152f35b346102cc5760403660031901126102cc577fc06b3ea10f261e1046d2465e60a4d2728421b1da49c730dd4663b047b9b28863612396612a8e565b61239e612aa4565b906123b460018060a01b03601a54163314612c42565b6001600160a01b0381165f908152600a60205260409020805460ff191660ff841515161790555b604080516001600160a01b039290921682529115156020820152a1005b346102cc5760403660031901126102cc577f4c98db678b2e31985e27aeef62d618a7b85f3f7083232fa923f6c083392301f7612432612a8e565b61243a612aa4565b9061245060018060a01b03601a54163314612c42565b6001600160a01b0381165f908152601b60205260409020805460ff191660ff841515161790556123db565b346102cc575f3660031901126102cc5761249f60018060a01b035f54163314612aff565b5f805460ff60a01b19169055005b346102cc5760203660031901126102cc576001600160a01b036124ce612a8e565b165f526003602052602060405f2054604051908152f35b346102cc5760403660031901126102cc577fc9c53b8c9ea205af19a608c901ecdec828651a2ebe5acb40e49eeeb8c08ce51061251f612a8e565b612527612aa4565b9061253d60018060a01b03601a54163314612c42565b6001600160a01b0381165f908152601c60205260409020805460ff191660ff841515161790556123db565b346102cc575f3660031901126102cc576020601154604051908152f35b346102cc575f3660031901126102cc576020601354604051908152f35b346102cc5760203660031901126102cc576004356125cb60018060a01b03601a54163314612c42565b80156125d657601355005b60405162461bcd60e51b815260206004820152600c60248201526b496e76616c6964207261746560a01b6044820152606490fd5b346102cc5760203660031901126102cc576004355f52600860205260405f20805490610b84600182015492600283015492600381015494600482015460ff60066005850154940154169360405197889760ff8460a81c169460ff8560a01c169460018060a01b0316938a612ab3565b346102cc5760203660031901126102cc576004356126a260018060a01b03601a54163314612c42565b62278d0081116126b157600d55005b60405162461bcd60e51b815260206004820152601160248201527054494d454c4f434b5f544f4f5f4c4f4e4760781b6044820152606490fd5b346102cc576101003660031901126102cc57602435600435604435801515908181036102cc576064359160843560e4359061272c60ff5f5460a01c1615612b37565b335f52601c60205260ff60405f205416801561291d575b8015612909575b61275390612b6c565b855f52600460205260405f209461277060ff600a88015416612bae565b875f52600560205260ff600660405f200154166128d3578260097f785ff45b7dd31a9884f4d13ca36c72b6cb5dc355fc116c7d733033e4770d98d19760809761285c888d6105ff60068f604051906127c782612be9565b8152898b602083019686885260408401908152612833606085019160c43583526080860193845260a0860194855260c086019960018b5260e08701995f8b525f52600560205260405f2096518755516001870155511515600286019060ff801983541691151516179055565b5160038401555160048301555160058201550192511515839060ff801983541691151516179055565b156128ac5760018101612870858254612c35565b905560028101612881858254612c35565b90555b84600482015560a43560058201550155604051938452602084015260408301526060820152a3005b600181016128bb858254612c28565b9055600281016128cc858254612c28565b9055612884565b60405162461bcd60e51b815260206004820152600e60248201526d7472616e7265662065786973747360901b6044820152606490fd5b50601a546001600160a01b0316331461274a565b50335f52601b60205260ff60405f205416612743565b346102cc5760203660031901126102cc576004355f52600460205261016060405f20805490600181015490600281015460038201546004830154600584015460018060a01b036006860154169160018060a01b036007870154169360088701549560ff600a60098a015499015416986040519a8b5260208b015260408a01526060890152608088015260a087015260c086015260e08501526101008401526101208301521515610140820152f35b346102cc5760203660031901126102cc576129fa612a8e565b612a0e60018060a01b035f54163314612aff565b601a546001600160a01b0391821691829082167f98c30f3cc89b3424f24027a22c5e438aa46755c070cb392f5cf69f439b8cb05c5f80a36001600160a01b03191617601a55005b346102cc5760203660031901126102cc576020906001600160a01b03612a79612a8e565b165f52600a825260ff60405f20541615158152f35b600435906001600160a01b03821682036102cc57565b6024359081151582036102cc57565b979491926101009794919a9996936101208a019b8a5260208a01526040890152606088015260018060a01b03166080870152151560a0860152151560c085015260e08401521515910152565b15612b0657565b60405162461bcd60e51b81526020600482015260096024820152682727aa2fa7aba722a960b91b6044820152606490fd5b15612b3e57565b60405162461bcd60e51b815260206004820152600660248201526514105554d15160d21b6044820152606490fd5b15612b7357565b60405162461bcd60e51b8152602060048201526013602482015272637265646974206f666669636572206f6e6c7960681b6044820152606490fd5b15612bb557565b60405162461bcd60e51b815260206004820152600c60248201526b1b9bc81bdd995c991c98599d60a21b6044820152606490fd5b610100810190811067ffffffffffffffff82111761103557604052565b90601f8019910116810190811067ffffffffffffffff82111761103557604052565b919082039182116113af57565b919082018092116113af57565b15612c4957565b60405162461bcd60e51b815260206004820152601060248201526f7661756c742061646d696e206f6e6c7960801b6044820152606490fd5b15612c8857565b60405162461bcd60e51b815260206004820152600960248201526814915153951490539560ba1b6044820152606490fd5b15612cc057565b60405162461bcd60e51b815260206004820152600a6024820152690616d6f756e74203e20360b41b6044820152606490fd5b80518210156113c35760209160051b010190565b15612d0d57565b60405162461bcd60e51b8152602060048201526014602482015273696e73756666696369656e742062616c616e636560601b6044820152606490fd5b908160209103126102cc575180151581036102cc5790565b15612d6857565b60405162461bcd60e51b81526020600482015260156024820152741d1bdad95b881d1c985b9cd9995c8819985a5b1959605a1b6044820152606490fd5b818102929181159184041417156113af57565b8115612dc2570490565b634e487b7160e01b5f52601260045260245ffd5b15612ddd57565b60405162461bcd60e51b815260206004820152601c60248201527f696e73756666696369656e7420617661696c61626c65206c696d6974000000006044820152606490fd5b15612e2957565b60405162461bcd60e51b815260206004820152600e60248201526d7061796d656e742065786973747360901b6044820152606490fd5b15612e6657565b60405162461bcd60e51b815260206004820152600c60248201526b6d616e61676572206f6e6c7960a01b6044820152606490fd5b612eb6612ead612ebf9260135490612da5565b60125490612db8565b60115490612da5565b906064820291808304606414901517156113af57612edc91612db8565b9056fea2646970667358221220cfac1f9deead65d0e36025c0d63aa242df0f80bbe82d5ba166d6b9d27a4662d664736f6c634300081e0033","linkReferences":{}},"methodIdentifiers":{"activeOverdraftCount()":"75e673a1","amountsPaid(bytes32)":"bc009378","approveRepayment(bytes32,bytes32)":"f936917a","balances(address)":"27e235e3","borrowerWhitelisted(address)":"089cc6af","computeHealthFactor(uint256,uint256)":"83806e55","contractOwner()":"ce606ee0","creditLimitAdjustments(bytes32)":"d8e49ff3","creditOfficers(address)":"5d85209d","dailyOverdraftFee(bytes32,uint256)":"9c071439","dailyUsedByBorrower(address,uint256)":"9e0c5485","debitTransactions(bytes32)":"1f223ffd","depositCollateral(uint256)":"bad4a01f","fetchDebitTransaction(bytes32)":"caeed857","fetchOverdraft(bytes32)":"eb0054c3","fetchRepaymentTransaction(bytes32)":"ddea224e","fetchVaultSettings()":"dc9d2430","getTotalUtilizedLimit(address)":"a113b0fa","getUtilizedAmountInToken(uint256)":"95075c6c","globalFeeBps()":"8b80cbf9","managers(address)":"fdff9b4d","maximumDailyLimit()":"5f393a17","maximumDebitAmount()":"5a3e988c","maximumOverdraftLimit()":"aebe0ecd","modifyOverdraftLine(bytes32,bytes32,bool,uint256,uint256,uint256,uint256,uint256)":"198e1e60","nativeDecimal()":"20a83c25","overdraftLineHealthFactor(bytes32)":"e730dd30","overdrafts(bytes32)":"17cdeb34","owner()":"8da5cb5b","pause()":"8456cb59","paused()":"5c975abb","platformFeeAddress()":"ed14834f","postDailyFee(bytes32)":"f0ab8f1a","postDebitTransaction(bytes32,uint256,bytes32,uint256,uint256)":"c69b76a8","postOverdraftLine(bytes32,uint256,uint256,uint256,address,address,uint256,uint256)":"bf8c44d9","postRepayment(bytes32,address,uint256,uint256,uint256,bytes32)":"f323e4b8","processBulkDailyFee(address)":"b1734eb7","rescueAllowedAfter()":"5204f538","setConfigValues(uint256)":"2074295e","setGlobalFeeBps(uint256)":"85913ba3","setMaximumDailyLimit(uint256)":"8e9fd7ad","setMaximumDebitAmount(uint256)":"580ead92","setMaximumOverdraftLimit(uint256)":"8c44a7b9","setTimelockAfterApproval(uint256)":"1c155ba3","setVaultAdmin(address)":"0988db4c","timelockAfterApproval()":"f89c1945","toggleCreditOfficer(address,bool)":"213051e5","toggleManager(address,bool)":"4822638c","tokenDecimal()":"5caed029","tokenToFiatRate()":"2095ca39","totalFeeCollected()":"b9b2b5cd","transferOwnership(address)":"f2fde38b","unpause()":"3f4ba83a","vaultAdmin()":"e7f6f225","whitelistBorrower(address,bool)":"4f3c4624","withdrawCollateral(uint256)":"6112fe2e","withdrawFee(uint256)":"be357616"},"id":0}